:060000000A128A116429B6
:10000800F000030EF1000B1812200B1961200C18D8
:100018008C20710E8300F00E700E090003138312FA
:10002800061C1E20061D2520861DA903061EA90ADA
:100038000B100800A70A06302702031D0800A701B5
:1000480008000130A80628182A282C282E202D2838
:100058004820080000302702031D3B282E08A9006D
:100068002F08AA003008AB003108AC0008000130A6
:100078002702031D08003208A9003308AA00340823
:10008800AB003508AC00080000302702031D5428D7
:100098002908AE002A08AF002B08B0002C08B100D0
:1000A80001302702031D08002908B2002A08B300FE
:1000B8002B08B4002C08B50008006820031383122D
:1000C800063081000B1108000810881008118811EB
:1000D800A0187A2820198028A019862874280800D2
:1000E800230887000814A001A0140800240887002A
:1000F8008814A00120150800250887000815A0010C
:10010800A0150800260887008815A00120140800FB
:0E011800AD0A0B308F00DC308E000C1008009A
:1002A0008A010A140F3982073F3406345B344F3415
:1002B00066346D347D3407347F346F3477347C3466
:1002C00039345E3479347134AC24B324C024CE2460
:1002D000DC24E824F624B60A03138312752199213D
:1002E00069249C22360885006E293C302D02031DAE
:1002F0000800AD01AE0A0A302E02031D0800AE014F
:10030000AF0A06302F02031D0800AF01B00A043007
:100310003002031D080002303102031D0800B10144
:10032000B001B20A0A303002031D0800B001B10A60
:1003300008008022872201303602031DAE290030DA
:10034000B5000130B40002303202031D0800033052
:100350003302031D0800B301B201B60A02303602AF
:10036000031DC1290030B5000230B400093032024B
:10037000031D080002303302031D0800B301B2015F
:10038000B60A03303602031DD4290030B50003300D
:10039000B40002303202031D080003303302031D93
:1003A0000800B301B201B60A04303602031DE72982
:1003B0000030B5000430B40001303202031D0800E3
:1003C00003303302031D0800B301B201B60A053041
:1003D0003602031DFA290030B5000530B4000230A2
:1003E0003202031D080003303302031D0800B3016D
:1003F000B201B60A06303602031D0D2A0030B500E0
:100400000630B40001303202031D0800033033020D
:10041000031D0800B301B201B60A07303602031DFE
:10042000202A0030B5000730B40002303202031D2C
:10043000080003303302031D0800B301B201B60AFD
:1004400008303602031D332A0030B5000830B400EE
:1004500002303202031D080003303302031D08007E
:10046000B301B201B60A09303602031D462A003034
:10047000B5000930B40001303202031D080003301A
:100480003302031D0800B301B201B60A0A30360276
:10049000031D592A0130B5000030B4000230320289
:1004A000031D080003303302031D0800B301B2012D
:1004B000B60A0B303602031D6C2A0130B50001303C
:1004C000B40001303202031D080003303302031D63
:1004D0000800B301B201B60A0C303602031D722ABD
:1004E0000130B5000230B40002303202031D0800B2
:1004F00003303302031D0800B301B201B60A08003D
:100500000D303602031D08000130B600080000302F
:100510003202031D080000303302031D0800B20A36
:100520000A303202031D0800B201B30A063033025A
:10053000031D0800B3010800003027020319A5229B
:10054000013027020319E0220800A722C4220A3042
:100550002902031D0800A901AA0A06302A02031D68
:100560000800AA01AB0A04302B02031D0800023068
:100570002C02031D0800AC01AB010A302B02031D45
:100580000800AB01AC0A0800FF302902031D080077
:100590000930A900AA03FF302A02031D0800053014
:1005A000AA00AB03FF302B02031D08000330AB0091
:1005B000AC03FF302C02031D08000230AC00080021
:1005C000E322422408008022362401303602031D33
:1005D000012B0030AC000130AB0002302902031DBA
:1005E000080003302A02031D0800AA01A901B60A67
:1005F00000302902031D080000302A02031D0800F4
:10060000A90A02303602031D1D2B0030AC00023057
:10061000AB0009302902031D080002302A02031D25
:100620000800AA01A901B60A00302902031D08002A
:1006300000302A02031D0800A90A03303602031DF8
:10064000392B0030AC000330AB0002302902031D0F
:10065000080003302A02031D0800AA01A901B60AF6
:1006600000302902031D080000302A02031D080083
:10067000A90A04303602031D552B0030AC000430AB
:10068000AB0001302902031D080003302A02031DBC
:100690000800AA01A901B60A00302902031D0800BA
:1006A00000302A02031D0800A90A05303602031D86
:1006B000712B0030AC000530AB0002302902031D65
:1006C000080003302A02031D0800AA01A901B60A86
:1006D00000302902031D080000302A02031D080013
:1006E000A90A06303602031D8D2B0030AC000630FF
:1006F000AB0001302902031D080003302A02031D4C
:100700000800AA01A901B60A00302902031D080049
:1007100000302A02031D0800A90A07303602031D13
:10072000A92B0030AC000730AB0002302902031DBA
:10073000080003302A02031D0800AA01A901B60A15
:1007400000302902031D080000302A02031D0800A2
:10075000A90A08303602031DC52B0030AC00083052
:10076000AB0002302902031D080003302A02031DDA
:100770000800AA01A901B60A00302902031D0800D9
:1007800000302A02031D0800A90A09303602031DA1
:10079000E12B0030AC000930AB0001302902031D11
:1007A000080003302A02031D0800AA01A901B60AA5
:1007B00000302902031D080000302A02031D080032
:1007C000A90A0A303602031DFD2B0130AC000030AF
:1007D000AB0002302902031D080003302A02031D6A
:1007E0000800AA01A901B60A00302902031D080069
:1007F00000302A02031D0800A90A0B303602031D2F
:10080000192C0130AC000130AB0001302902031D6E
:10081000080003302A02031D0800AA01A901B60A34
:1008200000302902031D080000302A02031D0800C1
:10083000A90A0C303602031D202C0130AC00023016
:10084000AB0002302902031D080003302A02031DF9
:100850000800AA01A901B60A00302902031D0800F8
:1008600000302A02031D0800A90A08000A302902E4
:10087000031D0800A901AA0A06302A02031D080068
:10088000AA0108005A24612401303602031D080021
:100890000030AC000130AB0000302A02031D08001C
:1008A00000302902031D08000330AA000130A9000E
:1008B000B603080000303602031D08000C30B600F5
:1008C0000800FF302902031D08000930A900AA030F
:1008D000080000302702031972240130270203198F
:1008E0008F2408002818752C822C29085021A30079
:1008F0002A085021A4002B085021A5002C085021C3
:10090000A60008002E085021A3002F085021A400A3
:1009100030085021A50031085021A60008002818F1
:10092000922C9F2C2B085021A3002C085021A400AE
:1009300029085021A5002A085021A60008003408E3
:100940005021A30035085021A40032085021A500F1
:1009500033085021A6000800031383160F138F16C7
:100960000F160F1408000313831681128111011151
:100970008110011003138312063081000B1108004F
:10098000031383121013901210169011901010146C
:100990000B308F00DC308E000C1008000313831620
:1009A000F430920003138312921412141217921649
:1009B00012169215121508000313831616149614B6
:1009C0001615961516160313831206080B10080049
:1009D000031383160C14031383128B170B178B1539
:1009E0000B100C108C108B160B11080003178316BC
:1009F0008801890103138316850187018801061484
:100A000086140615861506168113031383128501B5
:0A0A100087018801A001A70108007A
:04400E00C430FF3F7C
:00000001FF
