:060000000A128A116429B6
:10000800F000030EF1000B1812200B1942200C18F7
:100018006D20710E8300F00E700E09000313831219
:10002800061C1A20061D21200B100800A70A0630FE
:100038002702031D0800A70108000130A806281898
:10004800262828282A2029283620080000302702B8
:1000580003192E08A9002F08AA003008AB003108A0
:10006800AC0008000030270203192908AE002A084E
:10007800AF002B08B0002C08B1000800492003137A
:100088008312063081000B1108000810881008112F
:100098008811A0185B2820196128A01967285528FD
:1000A8000800230887000814A001A01408002408E9
:1000B80087008814A0012015080025088700081566
:1000C800A001A0150800260887008815A0012014A3
:1000D8000800AD0A0B308F00DC308E000C100800D1
:1002A0008A010A140F3982073F3406345B344F3415
:1002B00066346D347D3407347F346F3477347C3466
:1002C00039345E3479347134B721BE21CB21D92140
:1002D000E721F321012203138312942172212908BB
:1002E00085006D290030270203197721080028189E
:1002F0007A297C292E085021A3002F085021A40020
:1003000030085021A50031085021A60088292E0868
:100310005021A3002F085021A40030085021A5002F
:1003200031085021A60008003C302D02031D0800B2
:10033000AD01AE0A0A302E02031D0800AE01AF0A5D
:1003400006302F02031D0800AF01B00A0A30300248
:10035000031D0800B001B10A02303102031D08007C
:1003600004303002031D0800B101B001080003137E
:1003700083160F138F160F160F140800031383161E
:1003800081128111011181100110031383120630B3
:1003900081000B1108000313831210139012101622
:1003A0009011901010140B308F00DC308E000C1068
:1003B000080003138316F43092000313831292147F
:1003C0001214121792161216921512150800031322
:1003D0008316161496141615961516160313831203
:1003E00006080B100800031383160C140313831262
:1003F0008B170B178B150B100C108C108B160B1109
:1004000008000317831688018901031383168501E9
:1004100087018801061486140615861506168113B1
:1004200003138312850187018801A001A701080039
:04400E00C430FF3F7C
:00000001FF
