:060000000A128A116429B6
:10000800F000030EF1000B1812200B1947200C18F2
:100018007220710E8300F00E700E09000313831214
:10002800061C1E20061D2520861DA903061EA90ADA
:100038000B100800A70A06302702031D0800A701B5
:1000480008000130A80628182A282C282E202D2838
:100058003A2008000030270203192E08A9002F08AB
:10006800AA003008AB003108AC00080000302702B5
:1000780003192908AE002A08AF002B08B0002C0885
:10008800B100080008004E200313831206308100D7
:100098000B1108000810881008118811A018602892
:1000A80020196628A0196C285A28080023088700F8
:1000B8000814A001A0140800240887008814A001CF
:1000C80020150800250887000815A001A0150800BC
:1000D800260887008815A00120140800AD0A0B30F7
:0A00E8008F00DC308E000C100800C1
:1002A0008A010A140F3982073F3406345B344F3415
:1002B00066346D347D3407347F346F3477347C3466
:1002C00039345E3479347134F621FD210A22182242
:1002D0002622322240220313831271219421D42139
:1002E0006D293C302D02031D0800AD01AE0A0A3015
:1002F0002E02031D0800AE01AF0A06302F02031DB7
:100300000800AF01B00A04303002031D08000230BB
:100310003102031D0800B101B0010A303002031D93
:100320000800B001B10A0800003027020319992122
:1003300008009B21B721FF302902031D0800093066
:10034000A900AA03FF302A02031D08000530AA00F5
:10035000AB03FF302B02031D08000330AB00AC03DE
:10036000FF302C02031D08000230AC0008000A30E8
:100370002902031D0800A901AA0A06302A02031D4A
:100380000800AA01AB0A04302B02031D080002304A
:100390002C02031D0800AC01AB010A302B02031D27
:1003A0000800AB01AC0A0800003027020319D9216C
:1003B00008002818DC29E92929085021A3002A0867
:1003C0005021A4002B085021A5002C085021A60084
:1003D00008002E085021A3002F085021A400300847
:1003E0005021A50031085021A600080003138316F0
:1003F0000F138F160F160F140800031383168112A4
:100400008111011181100110031383120630810044
:100410000B11080003138312101390121016901181
:10042000901010140B308F00DC308E000C10080080
:1004300003138316F43092000313831292141214E0
:10044000121792161216921512150800031383162E
:10045000161496141615961516160313831206080D
:100460000B100800031383160C14031383128B174D
:100470000B178B150B100C108C108B160B11080022
:1004800003178316880189010313831685018701E9
:1004900088010614861406158615061681130313A3
:0E04A0008312850187018801A001A7010800D1
:04400E00C430FF3F7C
:00000001FF
