:060000000A128A116429B6
:10000800F000030EF1000B1814200B1990200C18A7
:10001800BB208C18E920710E8300F00E700E0900C9
:1000280003138312061C2220861C2B20061D3C204D
:10003800861DAA03061EAA0A0B1008002818080025
:10004800A70A03302702031D0800A7010800023091
:100058002702031D08003C183328372808003C10E5
:10006800B80A05120800281808000130BE06080062
:100078000130A806281841284328452044286B2029
:10008800080000302702031D52282F08AA00300854
:10009800AB003108AC003208AD000800013027027F
:1000A800031D5E283308AA003408AB003508AC00ED
:1000B8003608AD0002302702031D08003808AA00E0
:1000C8003908AB003A08AC003B08AD000800003026
:1000D8002702031D77282A08AF002B08B0002C0838
:1000E800B1002D08B20001302702031D83282A0819
:1000F800B3002B08B4002C08B5002D08B600023058
:100108002702031D08002A08B8002B08B9002C088C
:10011800BA002D08BB00080097200313831206308D
:1001280081000B1108000810881008118811A01808
:10013800A9282019AF28A019B528A3280800230842
:1001480087000814A001A014080024088700881458
:10015800A00120150800250887000815A001A01592
:100168000800260887008815A00120140800AE0A98
:1001780001303E020319CA2001303C020319DF2076
:100188000B308F00DC308E000C100800B8030030F4
:100198003802031D080000303902031D0800003032
:1001A8003A02031D080000303B02031D08003E1000
:1001B8003C1405160800BD0A3C303D02031D08002A
:1001C80005123C10BD01B80A0800ED20F5208C107E
:1001D8000800851AF1288516F428851EF42885124A
:1001E8000800051BF9280517FC28051FFC2805131E
:0201F8000800FD
:1002A0008A010A140F3982073F3406345B344F3415
:1002B00066346D347D3407347F346F3477347C3466
:1002C00039345E347934713463266A26772685267C
:1002D00093269F26AE26B70AB80A03138312762107
:1002E0009A219D22E025B92244266F293C302E0216
:1002F000031D0800AE01AF0A0A302F02031D0800DB
:10030000AF01B00A06303002031D0800B001B10A87
:1003100004303102031D080002303202031D0800C0
:10032000B201B101B30A0A303102031D0800B10164
:10033000B20A08008122882201303702031DAF294A
:100340000030B6000130B50002303302031D080052
:1003500003303402031D0800B401B301B70A0230B0
:100360003702031DC2290030B6000230B500093043
:100370003302031D080002303402031D0800B401DB
:10038000B301B70A03303702031DD5290030B60088
:100390000330B50002303302031D0800033034027D
:1003A000031D0800B401B301B70A04303702031D6E
:1003B000E8290030B6000430B50001303302031DD7
:1003C000080003303402031D0800B401B301B70A6A
:1003D00005303702031DFB290030B6000530B5009B
:1003E00002303302031D080003303402031D0800ED
:1003F000B401B301B70A06303702031D0E2A0030DC
:10040000B6000630B50001303302031D080003308A
:100410003402031D0800B401B301B70A07303702E4
:10042000031D212A0030B6000730B5000230330228
:10043000031D080003303402031D0800B401B3019A
:10044000B70A08303702031D342A0030B6000830DE
:10045000B50002303302031D080003303402031DCF
:100460000800B401B301B70A09303702031D472A57
:100470000030B6000930B50001303302031D08001A
:1004800003303402031D0800B401B301B70A0A3077
:100490003702031D5A2A0130B6000030B500023081
:1004A0003302031D080003303402031D0800B401A9
:1004B000B301B70A0B303702031D6D2A0130B600B5
:1004C0000130B50001303302031D0800033034024F
:1004D000031D0800B401B301B70A0C303702031D35
:1004E000732A0130B6000230B50002303302031D1A
:1004F000080003303402031D0800B401B301B70A39
:1005000008000D303702031D08000130B700080055
:1005100000303302031D080000303402031D0800C0
:10052000B30A0A303302031D0800B301B40A0630CF
:100530003402031D0800B4010800FF303802031D17
:1005400008000930B800B903FF303902031D080064
:100550000530B900BA03FF303A02031D0800093024
:10056000BA00BB03FF303B02031D08000930BB008B
:100570000800003027020319C622013027020319A0
:10058000022302302702031987250800C922E62228
:1005900008000A302A02031D0800AA01AB0A06302F
:1005A0002B02031D0800AB01AC0A04302C02031D12
:1005B000080002302D02031D0800AD01AC010A3015
:1005C0002C02031D0800AC01AD0A0800FF302A020E
:1005D000031D08000930AA00AB03FF302B02031DE6
:1005E00008000530AB00AC03FF302C02031D0800EF
:1005F0000330AC00AD03FF302D02031D08000230B4
:10060000AD00080005236F24080081225824013022
:100610003702031D232B0030AD000130AC00023047
:100620002A02031D080003302B02031D0800AB0142
:10063000AA01B70A00302A02031D080000302B026D
:10064000031D0800AA0A02303702031D3F2B0030A9
:10065000AD000230AC0009302A02031D0800023050
:100660002B02031D0800AB01AA01B70A00302A02C1
:10067000031D080000302B02031D0800AA0A0330E6
:100680003702031D5B2B0030AD000330AC0002309D
:100690002A02031D080003302B02031D0800AB01D2
:1006A000AA01B70A00302A02031D080000302B02FD
:1006B000031D0800AA0A04303702031D772B0030FF
:1006C000AD000430AC0001302A02031D08000330E5
:1006D0002B02031D0800AB01AA01B70A00302A0251
:1006E000031D080000302B02031D0800AA0A053074
:1006F0003702031D932B0030AD000530AC000230F3
:100700002A02031D080003302B02031D0800AB0161
:10071000AA01B70A00302A02031D080000302B028C
:10072000031D0800AA0A06303702031DAF2B003054
:10073000AD000630AC0001302A02031D0800033072
:100740002B02031D0800AB01AA01B70A00302A02E0
:10075000031D080000302B02031D0800AA0A073001
:100760003702031DCB2B0030AD000730AC00023048
:100770002A02031D080003302B02031D0800AB01F1
:10078000AA01B70A00302A02031D080000302B021C
:10079000031D0800AA0A08303702031DE72B0030AA
:1007A000AD000830AC0002302A02031D08000330FF
:1007B0002B02031D0800AB01AA01B70A00302A0270
:1007C000031D080000302B02031D0800AA0A09308F
:1007D0003702031D032C0030AD000930AC0001309E
:1007E0002A02031D080003302B02031D0800AB0181
:1007F000AA01B70A00302A02031D080000302B02AC
:10080000031D0800AA0A0A303702031D1F2C0130FD
:10081000AD000030AC0002302A02031D0800033096
:100820002B02031D0800AB01AA01B70A00302A02FF
:10083000031D080000302B02031D0800AA0A0B301C
:100840003702031D3B2C0130AD000130AC000130FC
:100850002A02031D080003302B02031D0800AB0110
:10086000AA01B70A00302A02031D080000302B023B
:10087000031D0800AA0A0C303702031D422C013068
:10088000AD000230AC0002302A02031D0800033024
:100890002B02031D0800AB01AA01B70A00302A028F
:1008A000031D080000302B02031D0800AA0A0800DF
:1008B00065240A302A02031D0800AA01AB0A06308B
:1008C0002B02031D0800AB01080000302A02031DA3
:1008D000080000302B02031D0800AA0A0800782532
:1008E0007F2501303702031D862C0030AD0001301A
:1008F000AC0000302A02031D080000302B02031D4B
:1009000008000330AB000130AA00B7030230370201
:10091000031D9C2C0030AD000230AC0000302A02D8
:10092000031D080000302B02031D08000330AB003C
:100930000130AA00B703080003303702031DB22CB0
:100940000030AD000330AC0000302A02031D080067
:1009500000302B02031D08000230AB000830AA0053
:10096000B703080004303702031DC82C0030AD0067
:100970000430AC0000302A02031D080000302B02B6
:10098000031D08000330AB000130AA00B7030800C4
:1009900005303702031DDE2C0030AD000530AC0001
:1009A00000302A02031D080000302B02031D08003E
:1009B0000330AB000030AA00B7030800063037024E
:1009C000031DF42C0030AD000630AC0000302A02CC
:1009D000031D080000302B02031D08000330AB008C
:1009E0000130AA00B703080007303702031D0A2DA3
:1009F0000030AD000730AC0000302A02031D0800B3
:100A000000302B02031D08000330AB000030AA00A9
:100A1000B703080008303702031D202D0030AD0059
:100A20000830AC0000302A02031D080000302B0201
:100A3000031D08000330AB000130AA00B703080013
:100A400009303702031D362D0030AD000930AC00EF
:100A500000302A02031D080000302B02031D08008D
:100A60000330AB000130AA00B70308000A30370298
:100A7000031D4C2D0130AD000030AC0000302A02C7
:100A8000031D080000302B02031D08000330AB00DB
:100A90000030AA00B70308000B303702031D622D97
:100AA0000130AD000130AC0000302A02031D080007
:100AB00000302B02031D08000330AB000130AA00F8
:100AC000B70308000C303702031D682D0130AD005C
:100AD0000230AC0000302A02031D080000302B0257
:100AE000031D08000330AB000030AA00B703080064
:100AF00000303702031D08000C30B7000800FF303B
:100B00002A02031D08000930AA00AB0308008A2549
:100B1000A82508000A302A02031D0800AA01AB0A12
:100B200006302B02031D0800AB01AC0A0A302C0270
:100B3000031D080009302D02031D0800AD01AC01A2
:100B4000AA0A0A302C02031D0800AC01AD0A0800F5
:100B5000C525FF302A02031D08000930AA00AB0397
:100B6000FF302B02031D08000530AB00AC03FF3043
:100B70002C02031D08000930AC00AD03FF302D022C
:100B8000031D08000930AD00080000302A02031DD3
:100B9000080000302B02031D08000530AB000930AF
:100BA000AA00AC03FF302C02031D08000930AC0082
:100BB000AD03FF302D02031D08000930AD00080011
:100BC000003027020319ED250130270203190A26F8
:100BD000023027020319272608002818F02DFD2DC2
:100BE0002A085021A3002B085021A4002C085021D2
:100BF000A5002D085021A60008002F085021A300B1
:100C000030085021A40031085021A500320850219D
:100C1000A600080028180D2E1A2E2C085021A3001B
:100C20002D085021A4002A085021A5002B0850218E
:100C3000A600080035085021A30036085021A40062
:100C400033085021A50034085021A60008002818B8
:100C50002A2E372E2A085021A3002B085021A40049
:100C60002C085021A5002D085021A60008003808A6
:100C70005021A30039085021A4003A085021A500B2
:100C80003B085021A600080047265C2608000030DB
:100C90002702031D4E2E05100515080001302702FE
:100CA000031D552E05118514080002302702031D6F
:100CB0000800851005140800281C5F2E612E851180
:100CC000622E85150800031383160F138F160F1657
:100CD0000F14080003138316811281110111811072
:100CE000011003138312063081000B110800031357
:100CF00083121013901210169011901010140B30D4
:100D00008F00DC308E000C10080003138316F430C3
:100D100092000313831292141214121792161216D1
:100D2000921512150800031383161614961416153F
:100D3000961516160313831206080B1008000313EA
:100D400083160C148C14031383128B170B178B153B
:100D50000B100C108C108B160B1108000317831648
:100D60008801890103138316850187018801061410
:100D70008614061586150616811303138312850142
:0A0D800087018801A001A701080007
:04400E00C430FF3F7C
:00000001FF
