:060000000A128A11142906
:10000800F000030EF1000B1814200B1993200C18A4
:10001800BE208C18EC20710E8300F00E700E0900C3
:1000280003138312061C2220861C2B20061D3C204D
:10003800861DAA03061EAA0A0B1008002818080025
:10004800A70A03302702031D0800A7010800023091
:100058002702031D08003C183328372808003C10E5
:10006800B80A05120800281808000130BE06080062
:100078000130A806281841284328452044286C2028
:10008800080000302702031D52282F08AA00300854
:10009800AB003108AC003208AD000800013027027F
:1000A800031D5F283308AA003408AB003508AC00EC
:1000B8003608AD00080002302702031D0800380882
:1000C800AA003908AB003A08AC003B08AD000800AC
:1000D80000302702031D79282A08AF002B08B0003A
:1000E8002C08B1002D08B200080001302702031DBA
:1000F80086282A08B3002B08B4002C08B5002D0860
:10010800B600080002302702031D08002A08B800BC
:100118002B08B9002C08BA002D08BB0008009A204B
:1001280003138312063081000B1108000810881091
:1001380008118811A018AC282019B228A019B828CD
:10014800A6280800230887000814A001A0140800A6
:10015800240887008814A0012015080025088700B6
:100168000815A001A0150800260887008815A00119
:1001780020140800AE0A01303E020319CD200130D8
:100188003C020319E2200B308F00DC308E000C108B
:100198000800B80300303802031D08000030390297
:1001A800031D080000303A02031D080000303B021E
:1001B800031D08003E103C1405160800BD0A3C301B
:1001C8003D02031D080005123C10BD01B80A0800D5
:1001D800F020F8208C100800851AF4288516F728D6
:1001E800851EF72885120800051BFC280517FF281F
:1001F800051FFF28051308008A010A140F39820712
:100208003F3406345B344F3466346D347D34073400
:100218007F346F3477347C3439345E3479347134D4
:1002280013261A262726352643264F265E26B70A82
:10023800B80A0313831226214A214D2290256922E8
:10024800F4251F293C302E02031D0800AE01AF0A19
:100258000A302F02031D0800AF01B00A0630300231
:10026800031D0800B001B10A04303102031D080063
:1002780002303202031D0800B201B101B30A0A308C
:100288003102031D0800B101B20A080031223822E8
:1002980001303702031D5F290030B6000130B50078
:1002A80002303302031D080003303402031D080026
:1002B800B401B301B70A02303702031D72290030B6
:1002C800B6000230B50009303302031D08000230C1
:1002D8003402031D0800B401B301B70A0330370222
:1002E800031D85290030B6000330B5000230330203
:1002F800031D080003303402031D0800B401B301D4
:10030800B70A04303702031D98290030B6000430BC
:10031800B50001303302031D080003303402031D09
:100328000800B401B301B70A05303702031DAB2931
:100338000030B6000530B50002303302031D080056
:1003480003303402031D0800B401B301B70A0630B4
:100358003702031DBE290030B6000630B500013053
:100368003302031D080003303402031D0800B401E2
:10037800B301B70A07303702031DD1290030B60090
:100388000730B50002303302031D08000330340281
:10039800031D0800B401B301B70A08303702031D72
:1003A800E4290030B6000830B50002303302031DDE
:1003B800080003303402031D0800B401B301B70A72
:1003C80009303702031DF7290030B6000930B5009F
:1003D80001303302031D080003303402031D0800F6
:1003E800B401B301B70A0A303702031D0A2A0130E3
:1003F800B6000030B50002303302031D0800033098
:100408003402031D0800B401B301B70A0B303702E8
:10041800031D1D2A0130B6000130B500013033023A
:10042800031D080003303402031D0800B401B301A2
:10043800B70A0C303702031D232A0130B6000230F8
:10044800B50002303302031D080003303402031DD7
:100458000800B401B301B70A08000D303702031DC4
:1004680008000130B700080000303302031D0800FF
:1004780000303402031D0800B30A0A303302031D9A
:100488000800B301B40A06303402031D0800B401A1
:100498000800FF303802031D08000930B800B9030E
:1004A800FF303902031D08000530B900BA03FF30D8
:1004B8003A02031D08000930BA00BB03FF303B02B3
:1004C800031D08000930BB0008000030270203198B
:1004D8007622013027020319B222023027020319BB
:1004E800372508007922962208000A302A02031DBF
:1004F8000800AA01AB0A06302B02031D0800AB0155
:10050800AC0A04302C02031D080002302D02031D22
:100518000800AD01AC010A302C02031D0800AC0133
:10052800AD0A0800FF302A02031D08000930AA009E
:10053800AB03FF302B02031D08000530AB00AC03F2
:10054800FF302C02031D08000330AC00AD03FF3060
:100558002D02031D08000230AD000800B5221F243B
:1005680008003122082401303702031DD32A003045
:10057800AD000130AC0002302A02031D0800033030
:100588002B02031D0800AB01AA01B70A00302A029A
:10059800031D080000302B02031D0800AA0A0230C0
:1005A8003702031DEF2A0030AD000230AC000930DD
:1005B8002A02031D080002302B02031D0800AB01AC
:1005C800AA01B70A00302A02031D080000302B02D6
:1005D800031D0800AA0A03303702031D0B2B003045
:1005E800AD000330AC0002302A02031D08000330BE
:1005F8002B02031D0800AB01AA01B70A00302A022A
:10060800031D080000302B02031D0800AA0A04304D
:100618003702031D272B0030AD000430AC00013039
:100628002A02031D080003302B02031D0800AB013A
:10063800AA01B70A00302A02031D080000302B0265
:10064800031D0800AA0A05303702031D432B00309A
:10065800AD000530AC0002302A02031D080003304B
:100668002B02031D0800AB01AA01B70A00302A02B9
:10067800031D080000302B02031D0800AA0A0630DB
:100688003702031D5F2B0030AD000630AC0001308F
:100698002A02031D080003302B02031D0800AB01CA
:1006A800AA01B70A00302A02031D080000302B02F5
:1006B800031D0800AA0A07303702031D7B2B0030F0
:1006C800AD000730AC0002302A02031D08000330D9
:1006D8002B02031D0800AB01AA01B70A00302A0249
:1006E800031D080000302B02031D0800AA0A083069
:1006F8003702031D972B0030AD000830AC000230E4
:100708002A02031D080003302B02031D0800AB0159
:10071800AA01B70A00302A02031D080000302B0284
:10072800031D0800AA0A09303702031DB32B003045
:10073800AD000930AC0001302A02031D0800033067
:100748002B02031D0800AB01AA01B70A00302A02D8
:10075800031D080000302B02031D0800AA0A0A30F6
:100768003702031DCF2B0130AD000030AC00023042
:100778002A02031D080003302B02031D0800AB01E9
:10078800AA01B70A00302A02031D080000302B0214
:10079800031D0800AA0A0B303702031DEB2B01309A
:1007A800AD000130AC0001302A02031D08000330FF
:1007B8002B02031D0800AB01AA01B70A00302A0268
:1007C800031D080000302B02031D0800AA0A0C3084
:1007D8003702031DF22B0130AD000230AC000230AD
:1007E8002A02031D080003302B02031D0800AB0179
:1007F800AA01B70A00302A02031D080000302B02A4
:10080800031D0800AA0A080015240A302A02031D3D
:100818000800AA01AB0A06302B02031D0800AB0131
:10082800080000302A02031D080000302B02031DB7
:100838000800AA0A080028252F2501303702031DC1
:10084800362C0030AD000130AC0000302A02031D08
:10085800080000302B02031D08000330AB000130F4
:10086800AA00B70302303702031D4C2C0030AD003C
:100878000230AC0000302A02031D080000302B02B1
:10088800031D08000330AB000130AA00B7030800BD
:1008980003303702031D622C0030AD000330AC007A
:1008A80000302A02031D080000302B02031D080037
:1008B8000230AB000830AA00B70308000430370242
:1008C800031D782C0030AD000430AC0000302A0243
:1008D800031D080000302B02031D08000330AB0085
:1008E8000130AA00B703080005303702031D8E2C1B
:1008F8000030AD000530AC0000302A02031D0800AE
:1009080000302B02031D08000330AB000030AA00A2
:10091800B703080006303702031DA42C0030AD00D1
:100928000630AC0000302A02031D080000302B02FC
:10093800031D08000330AB000130AA00B70308000C
:1009480007303702031DBA2C0030AD000730AC0069
:1009580000302A02031D080000302B02031D080086
:100968000330AB000030AA00B70308000830370294
:10097800031DD02C0030AD000830AC0000302A0236
:10098800031D080000302B02031D08000330AB00D4
:100998000130AA00B703080009303702031DE62C0E
:1009A8000030AD000930AC0000302A02031D0800F9
:1009B80000302B02031D08000330AB000130AA00F1
:1009C800B70308000A303702031DFC2C0130AD00C4
:1009D8000030AC0000302A02031D080000302B0252
:1009E800031D08000330AB000030AA00B70308005D
:1009F8000B303702031D122D0130AD000130AC0061
:100A080000302A02031D080000302B02031D0800D5
:100A18000330AB000130AA00B70308000C303702DE
:100A2800031D182D0130AD000230AC0000302A0241
:100A3800031D080000302B02031D08000330AB0023
:100A48000030AA00B703080000303702031D080071
:100A58000C30B7000800FF302A02031D08000930D7
:100A6800AA00AB0308003A25582508000A302A02D4
:100A7800031D0800AA01AB0A06302B02031D08005B
:100A8800AB01AC0A0A302C02031D080009302D0204
:100A9800031D0800AD01AC01AA0A0A302C02031D8F
:100AA8000800AC01AD0A08007525FF302A02031DB5
:100AB80008000930AA00AB03FF302B02031D080011
:100AC8000530AB00AC03FF302C02031D08000930D1
:100AD800AC00AD03FF302D02031D08000930AD0046
:100AE800080000302A02031D080000302B02031DF5
:100AF80008000530AB000930AA00AC03FF302C0217
:100B0800031D08000930AC00AD03FF302D02031DA2
:100B180008000930AD0008000030270203199D25A0
:100B2800013027020319BA25023027020319D725F5
:100B380008002818A02DAD2D2A080021A3002B0895
:100B48000021A4002C080021A5002D080021A600E2
:100B580008002F080021A30030080021A400310854
:100B68000021A50032080021A60008002818BD2D84
:100B7800CA2D2C080021A3002D080021A4002A0852
:100B88000021A5002B080021A60008003508002137
:100B9800A30036080021A40033080021A50034086A
:100BA8000021A60008002818DA2DE72D2A080021C0
:100BB800A3002B080021A4002C080021A5002D0863
:100BC8000021A600080038080021A30039080021E8
:100BD800A4003A080021A5003B080021A60008004F
:100BE800F7250C26080000302702031DFE2D0510EE
:100BF8000515080001302702031D052E051185146F
:100C0800080002302702031D08008510051408009B
:100C1800281C0F2E112E8511122E8515080003137E
:100C280083160F138F160F160F140800031383165D
:100C380081128111011181100110031383120630F2
:100C480081000B1108000313831210139012101661
:100C58009011901010140B308F00DC308E000C10A7
:100C6800080003138316F4309200031383129214BE
:100C78001214121792161216921512150800031361
:100C88008316161496141615961516160313831242
:100C980006080B100800031383160C148C14031396
:100CA80083128B170B178B150B100C108C108B16CF
:100CB8000B11080003178316880189010313831693
:100CC80085018701880106148614061586150616FF
:100CD800811303138312850187018801A001A101F3
:100CE800A301A701A801A901AA01AB01AC01AD01AB
:100CF800AE01AF01B001B101B201B301B401B50158
:100D0800B601B701B801B901BA01BB01BC01BD0107
:040D1800BE01080010
:04400E00D420FF3F7C
:00000001FF
