:060000000A128A116429B6
:10000800F000030EF1000B1812200B198E200C18AB
:10001800B920710E8300F00E700E090003138312CD
:10002800061C2020861C2920061D3A20861DA903AF
:10003800061EA90A0B10080028180800A70A033092
:100048002702031D0800A701080002302702031D2C
:1000580008003B183128352808003B10B70A05125C
:100068000800281808000130BD0608000130A8065D
:1000780028183F28412843204228692008000030DA
:100088002702031D50282E08A9002F08AA003008AF
:10009800AB003108AC00080001302702031D5C28C2
:1000A8003208A9003308AA003408AB003508AC00B0
:1000B80002302702031D08003708A9003808AA00E3
:1000C8003908AB003A08AC00080000302702031DCD
:1000D80075282908AE002A08AF002B08B0002C08A4
:1000E800B10001302702031D81282908B2002A081F
:1000F800B3002B08B4002C08B50002302702031DFA
:1001080008002908B7002A08B8002B08B9002C08ED
:10011800BA000800952003138312063081000B11E2
:1001280008000810881008118811A018A72820199D
:10013800AD28A019B328A1280800230887000814AF
:10014800A001A0140800240887008814A001201525
:100158000800250887000815A001A0150800260832
:1001680087008815A00120140800AD0A01303D025F
:100178000319C82001303B020319DD200B308F0022
:10018800DC308E000C100800B70300303702031D66
:10019800080000303802031D080000303902031D32
:1001A800080000303A02031D08003D103B140516F4
:1001B8000800BC0A3C303C02031D080005123B1035
:0601C800BC01B70A0800AB
:1002A0008A010A140F3982073F3406345B344F3415
:1002B00066346D347D3407347F346F3477347C3466
:1002C00039345E347934713463266A26772685267C
:1002D00093269F26AD26B60AB70A0313831276210A
:1002E0009A219D22E025B92244266F293C302D0217
:1002F000031D0800AD01AE0A0A302E02031D0800DE
:10030000AE01AF0A06302F02031D0800AF01B00A8C
:1003100004303002031D080002303102031D0800C2
:10032000B101B001B20A0A303002031D0800B00169
:10033000B10A08008122882201303602031DAF294C
:100340000030B5000130B40002303202031D080055
:1003500003303302031D0800B301B201B60A0230B4
:100360003602031DC2290030B5000230B400093046
:100370003202031D080002303302031D0800B301DE
:10038000B201B60A03303602031DD5290030B5008C
:100390000330B40002303202031D08000330330280
:1003A000031D0800B301B201B60A04303602031D72
:1003B000E8290030B5000430B40001303202031DDA
:1003C000080003303302031D0800B301B201B60A6E
:1003D00005303602031DFB290030B5000530B4009E
:1003E00002303202031D080003303302031D0800EF
:1003F000B301B201B60A06303602031D0E2A0030E0
:10040000B5000630B40001303202031D080003308D
:100410003302031D0800B301B201B60A07303602E9
:10042000031D212A0030B5000730B400023032022B
:10043000031D080003303302031D0800B301B2019D
:10044000B60A08303602031D342A0030B5000830E1
:10045000B40002303202031D080003303302031DD2
:100460000800B301B201B60A09303602031D472A5B
:100470000030B5000930B40001303202031D08001D
:1004800003303302031D0800B301B201B60A0A307B
:100490003602031D5A2A0130B5000030B400023084
:1004A0003202031D080003303302031D0800B301AC
:1004B000B201B60A0B303602031D6D2A0130B500B9
:1004C0000130B40001303202031D08000330330252
:1004D000031D0800B301B201B60A0C303602031D39
:1004E000732A0130B5000230B40002303202031D1D
:1004F000080003303302031D0800B301B201B60A3D
:1005000008000D303602031D08000130B600080057
:1005100000303202031D080000303302031D0800C2
:10052000B20A0A303202031D0800B201B30A0630D3
:100530003302031D0800B3010800FF303702031D1A
:1005400008000930B700B803FF303802031D080067
:100550000530B800B903FF303902031D0800093027
:10056000B900BA03FF303A02031D08000930BA008F
:100570000800003027020319C622013027020319A0
:10058000022302302702031987250800C922E62228
:1005900008000A302902031D0800A901AA0A063032
:1005A0002A02031D0800AA01AB0A04302B02031D16
:1005B000080002302C02031D0800AC01AB010A3018
:1005C0002B02031D0800AB01AC0A0800FF30290212
:1005D000031D08000930A900AA03FF302A02031DE9
:1005E00008000530AA00AB03FF302B02031D0800F2
:1005F0000330AB00AC03FF302C02031D08000230B7
:10060000AC00080005236F24080081225824013023
:100610003602031D232B0030AC000130AB0002304A
:100620002902031D080003302A02031D0800AA0145
:10063000A901B60A00302902031D080000302A0271
:10064000031D0800A90A02303602031D3F2B0030AB
:10065000AC000230AB0009302902031D0800023053
:100660002A02031D0800AA01A901B60A00302902C6
:10067000031D080000302A02031D0800A90A0330E8
:100680003602031D5B2B0030AC000330AB000230A0
:100690002902031D080003302A02031D0800AA01D5
:1006A000A901B60A00302902031D080000302A0201
:1006B000031D0800A90A04303602031D772B003001
:1006C000AC000430AB0001302902031D08000330E8
:1006D0002A02031D0800AA01A901B60A0030290256
:1006E000031D080000302A02031D0800A90A053076
:1006F0003602031D932B0030AC000530AB000230F6
:100700002902031D080003302A02031D0800AA0164
:10071000A901B60A00302902031D080000302A0290
:10072000031D0800A90A06303602031DAF2B003056
:10073000AC000630AB0001302902031D0800033075
:100740002A02031D0800AA01A901B60A00302902E5
:10075000031D080000302A02031D0800A90A073003
:100760003602031DCB2B0030AC000730AB0002304B
:100770002902031D080003302A02031D0800AA01F4
:10078000A901B60A00302902031D080000302A0220
:10079000031D0800A90A08303602031DE72B0030AC
:1007A000AC000830AB0002302902031D0800033002
:1007B0002A02031D0800AA01A901B60A0030290275
:1007C000031D080000302A02031D0800A90A093091
:1007D0003602031D032C0030AC000930AB000130A1
:1007E0002902031D080003302A02031D0800AA0184
:1007F000A901B60A00302902031D080000302A02B0
:10080000031D0800A90A0A303602031D1F2C0130FF
:10081000AC000030AB0002302902031D0800033099
:100820002A02031D0800AA01A901B60A0030290204
:10083000031D080000302A02031D0800A90A0B301E
:100840003602031D3B2C0130AC000130AB000130FF
:100850002902031D080003302A02031D0800AA0113
:10086000A901B60A00302902031D080000302A023F
:10087000031D0800A90A0C303602031D422C01306A
:10088000AC000230AB0002302902031D0800033027
:100890002A02031D0800AA01A901B60A0030290294
:1008A000031D080000302A02031D0800A90A0800E1
:1008B00065240A302902031D0800A901AA0A06308E
:1008C0002A02031D0800AA01080000302902031DA6
:1008D000080000302A02031D0800A90A0800782534
:1008E0007F2501303602031D862C0030AC0001301C
:1008F000AB0000302902031D080000302A02031D4E
:1009000008000330AA000130A900B6030230360205
:10091000031D9C2C0030AC000230AB0000302902DB
:10092000031D080000302A02031D08000330AA003E
:100930000130A900B603080003303602031DB22CB3
:100940000030AC000330AB0000302902031D08006A
:1009500000302A02031D08000230AA000830A90056
:10096000B603080004303602031DC82C0030AC006A
:100970000430AB0000302902031D080000302A02B9
:10098000031D08000330AA000130A900B6030800C7
:1009900005303602031DDE2C0030AC000530AB0004
:1009A00000302902031D080000302A02031D080040
:1009B0000330AA000030A900B60308000630360252
:1009C000031DF42C0030AC000630AB0000302902CF
:1009D000031D080000302A02031D08000330AA008E
:1009E0000130A900B603080007303602031D0A2DA6
:1009F0000030AC000730AB0000302902031D0800B6
:100A000000302A02031D08000330AA000030A900AC
:100A1000B603080008303602031D202D0030AC005C
:100A20000830AB0000302902031D080000302A0204
:100A3000031D08000330AA000130A900B603080016
:100A400009303602031D362D0030AC000930AB00F2
:100A500000302902031D080000302A02031D08008F
:100A60000330AA000130A900B60308000A3036029C
:100A7000031D4C2D0130AC000030AB0000302902CA
:100A8000031D080000302A02031D08000330AA00DD
:100A90000030A900B60308000B303602031D622D9A
:100AA0000130AC000130AB0000302902031D08000A
:100AB00000302A02031D08000330AA000130A900FB
:100AC000B60308000C303602031D682D0130AC005F
:100AD0000230AB0000302902031D080000302A025A
:100AE000031D08000330AA000030A900B603080067
:100AF00000303602031D08000C30B6000800FF303D
:100B00002902031D08000930A900AA0308008A254C
:100B1000A82508000A302902031D0800A901AA0A15
:100B200006302A02031D0800AA01AB0A0A302B0274
:100B3000031D080009302C02031D0800AC01AB01A5
:100B4000A90A0A302B02031D0800AB01AC0A0800F9
:100B5000C525FF302902031D08000930A900AA039A
:100B6000FF302A02031D08000530AA00AB03FF3046
:100B70002B02031D08000930AB00AC03FF302C0230
:100B8000031D08000930AC00080000302902031DD5
:100B9000080000302A02031D08000530AA000930B1
:100BA000A900AB03FF302B02031D08000930AB0086
:100BB000AC03FF302C02031D08000930AC00080014
:100BC000003027020319ED250130270203190A26F8
:100BD000023027020319272608002818F02DFD2DC2
:100BE00029085021A3002A085021A4002B085021D5
:100BF000A5002C085021A60008002E085021A300B3
:100C00002F085021A40030085021A50031085021A0
:100C1000A600080028180D2E1A2E2B085021A3001C
:100C20002C085021A40029085021A5002A08502191
:100C3000A600080034085021A30035085021A40064
:100C400032085021A50033085021A60008002818BA
:100C50002A2E372E29085021A3002A085021A4004B
:100C60002B085021A5002C085021A60008003708A9
:100C70005021A30038085021A40039085021A500B4
:100C80003A085021A600080047265C2608000030DC
:100C90002702031D4E2E05100515080001302702FE
:100CA000031D552E05118514080002302702031D6F
:100CB0000800851005140800281C5F2E612E851180
:100CC000622E85150800031383160F138F160F1657
:100CD0000F14080003138316811281110111811072
:100CE000011003138312063081000B110800031357
:100CF00083121013901210169011901010140B30D4
:100D00008F00DC308E000C10080003138316F430C3
:100D100092000313831292141214121792161216D1
:100D2000921512150800031383161614961416153F
:100D3000961516160313831206080B1008000313EA
:100D400083160C14031383128B170B178B150B10C0
:100D50000C108C108B160B110800031783168801DA
:100D600089010313831685018701880106148614FF
:100D70000615861506168113031383128501870154
:080D80008801A001A701080091
:04400E00C430FF3F7C
:00000001FF
